{
  "contractName": "Voting",
  "abi": [
    {
      "inputs": [],
      "stateMutability": "nonpayable",
      "type": "constructor"
    },
    {
      "anonymous": false,
      "inputs": [
        {
          "indexed": true,
          "internalType": "uint256",
          "name": "candidateId",
          "type": "uint256"
        }
      ],
      "name": "Voted",
      "type": "event"
    },
    {
      "inputs": [],
      "name": "contractOwner",
      "outputs": [
        {
          "internalType": "address",
          "name": "",
          "type": "address"
        }
      ],
      "stateMutability": "view",
      "type": "function",
      "constant": true
    },
    {
      "inputs": [],
      "name": "electionState",
      "outputs": [
        {
          "internalType": "enum Voting.ElectionState",
          "name": "",
          "type": "uint8"
        }
      ],
      "stateMutability": "view",
      "type": "function",
      "constant": true
    },
    {
      "inputs": [],
      "name": "totalCandidates",
      "outputs": [
        {
          "internalType": "uint256",
          "name": "",
          "type": "uint256"
        }
      ],
      "stateMutability": "view",
      "type": "function",
      "constant": true
    },
    {
      "inputs": [],
      "name": "totalVoters",
      "outputs": [
        {
          "internalType": "uint256",
          "name": "",
          "type": "uint256"
        }
      ],
      "stateMutability": "view",
      "type": "function",
      "constant": true
    },
    {
      "inputs": [],
      "name": "initiateElection",
      "outputs": [],
      "stateMutability": "nonpayable",
      "type": "function"
    },
    {
      "inputs": [],
      "name": "concludeElection",
      "outputs": [],
      "stateMutability": "nonpayable",
      "type": "function"
    },
    {
      "inputs": [
        {
          "internalType": "string",
          "name": "_name",
          "type": "string"
        }
      ],
      "name": "addCandidate",
      "outputs": [],
      "stateMutability": "nonpayable",
      "type": "function"
    },
    {
      "inputs": [
        {
          "internalType": "address",
          "name": "_voter",
          "type": "address"
        }
      ],
      "name": "registerVoter",
      "outputs": [],
      "stateMutability": "nonpayable",
      "type": "function"
    },
    {
      "inputs": [
        {
          "internalType": "uint256",
          "name": "_candidateId",
          "type": "uint256"
        }
      ],
      "name": "castVote",
      "outputs": [],
      "stateMutability": "nonpayable",
      "type": "function"
    },
    {
      "inputs": [
        {
          "internalType": "uint256",
          "name": "_candidateId",
          "type": "uint256"
        }
      ],
      "name": "getCandidateDetails",
      "outputs": [
        {
          "internalType": "string",
          "name": "",
          "type": "string"
        }
      ],
      "stateMutability": "view",
      "type": "function",
      "constant": true
    },
    {
      "inputs": [],
      "name": "getResult",
      "outputs": [
        {
          "internalType": "uint256[]",
          "name": "",
          "type": "uint256[]"
        },
        {
          "internalType": "string[]",
          "name": "",
          "type": "string[]"
        },
        {
          "internalType": "uint256[]",
          "name": "",
          "type": "uint256[]"
        }
      ],
      "stateMutability": "view",
      "type": "function",
      "constant": true
    },
    {
      "inputs": [
        {
          "internalType": "address",
          "name": "_current",
          "type": "address"
        }
      ],
      "name": "checkUserRole",
      "outputs": [
        {
          "internalType": "string",
          "name": "",
          "type": "string"
        }
      ],
      "stateMutability": "view",
      "type": "function",
      "constant": true
    },
    {
      "inputs": [],
      "name": "getElectionState",
      "outputs": [
        {
          "internalType": "string",
          "name": "",
          "type": "string"
        }
      ],
      "stateMutability": "view",
      "type": "function",
      "constant": true
    }
  ],
  "bytecode": "0x6080604052600060045560006005553480156200001b57600080fd5b50336000806101000a81548173ffffffffffffffffffffffffffffffffffffffff021916908373ffffffffffffffffffffffffffffffffffffffff16021790555060008060146101000a81548160ff02191690836002811115620000a8577f4e487b7100000000000000000000000000000000000000000000000000000000600052602160045260246000fd5b0217905550620000f36040518060400160405280600581526020017f416c696365000000000000000000000000000000000000000000000000000000815250620001ae60201b60201c565b620001396040518060400160405280600481526020017f4a6f686e00000000000000000000000000000000000000000000000000000000815250620001ae60201b60201c565b6200015e735b38da6a701c568545dcfcb03fcb875f56beddc46200038c60201b60201c565b62000183734b20993bc481177ec7e8f571cecae8a9e22c02db6200038c60201b60201c565b620001a87378731d3ca6b7e34ac0f824c42a7cc18a495cabab6200038c60201b60201c565b62000972565b60008054906101000a900473ffffffffffffffffffffffffffffffffffffffff1673ffffffffffffffffffffffffffffffffffffffff163373ffffffffffffffffffffffffffffffffffffffff16146200023f576040517f08c379a000000000000000000000000000000000000000000000000000000000815260040162000236906200080f565b60405180910390fd5b600060028111156200027a577f4e487b7100000000000000000000000000000000000000000000000000000000600052602160045260246000fd5b600060149054906101000a900460ff166002811115620002c3577f4e487b7100000000000000000000000000000000000000000000000000000000600052602160045260246000fd5b1462000306576040517f08c379a0000000000000000000000000000000000000000000000000000000008152600401620002fd9062000853565b60405180910390fd5b60405180606001604052806004548152602001828152602001600081525060016000600454815260200190815260200160002060008201518160000155602082015181600101908051906020019062000361929190620005e9565b5060408201518160020155905050600460008154809291906200038490620008c6565b919050555050565b60008054906101000a900473ffffffffffffffffffffffffffffffffffffffff1673ffffffffffffffffffffffffffffffffffffffff163373ffffffffffffffffffffffffffffffffffffffff16146200041d576040517f08c379a000000000000000000000000000000000000000000000000000000000815260040162000414906200080f565b60405180910390fd5b600360008273ffffffffffffffffffffffffffffffffffffffff1673ffffffffffffffffffffffffffffffffffffffff16815260200190815260200160002060009054906101000a900460ff1615620004ad576040517f08c379a0000000000000000000000000000000000000000000000000000000008152600401620004a49062000831565b60405180910390fd5b60006002811115620004e8577f4e487b7100000000000000000000000000000000000000000000000000000000600052602160045260246000fd5b600060149054906101000a900460ff16600281111562000531577f4e487b7100000000000000000000000000000000000000000000000000000000600052602160045260246000fd5b1462000574576040517f08c379a00000000000000000000000000000000000000000000000000000000081526004016200056b90620007ed565b60405180910390fd5b6001600360008373ffffffffffffffffffffffffffffffffffffffff1673ffffffffffffffffffffffffffffffffffffffff16815260200190815260200160002060006101000a81548160ff02191690831515021790555060056000815480929190620005e190620008c6565b919050555050565b828054620005f79062000890565b90600052602060002090601f0160209004810192826200061b576000855562000667565b82601f106200063657805160ff191683800117855562000667565b8280016001018555821562000667579182015b828111156200066657825182559160200191906001019062000649565b5b5090506200067691906200067a565b5090565b5b80821115620006955760008160009055506001016200067b565b5090565b6000620006a8602b8362000875565b91507f566f7465722063616e277420626520616464656420616674657220656c65637460008301527f696f6e20737461727465640000000000000000000000000000000000000000006020830152604082019050919050565b60006200071060218362000875565b91507f4f6e6c79206f776e65722063616e2063616c6c20746869732066756e6374696f60008301527f6e000000000000000000000000000000000000000000000000000000000000006020830152604082019050919050565b60006200077860138362000875565b91507f566f74657220616c7265616479206164646564000000000000000000000000006000830152602082019050919050565b6000620007ba601c8362000875565b91507f456c656374696f6e2068617320616c72656164792073746172746564000000006000830152602082019050919050565b60006020820190508181036000830152620008088162000699565b9050919050565b600060208201905081810360008301526200082a8162000701565b9050919050565b600060208201905081810360008301526200084c8162000769565b9050919050565b600060208201905081810360008301526200086e81620007ab565b9050919050565b600082825260208201905092915050565b6000819050919050565b60006002820490506001821680620008a957607f821691505b60208210811415620008c057620008bf62000943565b5b50919050565b6000620008d38262000886565b91507fffffffffffffffffffffffffffffffffffffffffffffffffffffffffffffffff82141562000909576200090862000914565b5b600182019050919050565b7f4e487b7100000000000000000000000000000000000000000000000000000000600052601160045260246000fd5b7f4e487b7100000000000000000000000000000000000000000000000000000000600052602260045260246000fd5b611fdc80620009826000396000f3fe608060405234801561001057600080fd5b50600436106100cf5760003560e01c8063462e91ec1161008c578063cde419a411610066578063cde419a4146101ec578063ce606ee0146101f6578063de29278914610214578063f869809c14610234576100cf565b8063462e91ec146101825780634ac269211461019e5780635f5300ff146101ce576100cf565b80630ff9e259146100d45780632280043d146100de57806327f9fd50146100fc5780633866965c1461012c57806338db6dd31461014a5780633eb76b9c14610166575b600080fd5b6100dc610252565b005b6100e66103bf565b6040516100f39190611b01565b60405180910390f35b61011660048036038101906101119190611612565b6103d2565b6040516101239190611b1c565b60405180910390f35b6101346104cb565b6040516101419190611c5e565b60405180910390f35b610164600480360381019061015f91906115a8565b6104d1565b005b610180600480360381019061017b9190611612565b610721565b005b61019c600480360381019061019791906115d1565b610a01565b005b6101b860048036038101906101b391906115a8565b610bd3565b6040516101c59190611b1c565b60405180910390f35b6101d6610d33565b6040516101e39190611c5e565b60405180910390f35b6101f4610d39565b005b6101fe610ea6565b60405161020b9190611a9a565b60405180910390f35b61021c610eca565b60405161022b93929190611ab5565b60405180910390f35b61023c6112ab565b6040516102499190611b1c565b60405180910390f35b60008054906101000a900473ffffffffffffffffffffffffffffffffffffffff1673ffffffffffffffffffffffffffffffffffffffff163373ffffffffffffffffffffffffffffffffffffffff16146102e0576040517f08c379a00000000000000000000000000000000000000000000000000000000081526004016102d790611b5e565b60405180910390fd5b6000600281111561031a577f4e487b7100000000000000000000000000000000000000000000000000000000600052602160045260246000fd5b600060149054906101000a900460ff166002811115610362577f4e487b7100000000000000000000000000000000000000000000000000000000600052602160045260246000fd5b1461036c57600080fd5b6001600060146101000a81548160ff021916908360028111156103b8577f4e487b7100000000000000000000000000000000000000000000000000000000600052602160045260246000fd5b0217905550565b600060149054906101000a900460ff1681565b6060600082101580156103e6575060045482105b610425576040517f08c379a000000000000000000000000000000000000000000000000000000000815260040161041c90611c1e565b60405180910390fd5b60016000838152602001908152602001600020600101805461044690611e1c565b80601f016020809104026020016040519081016040528092919081815260200182805461047290611e1c565b80156104bf5780601f10610494576101008083540402835291602001916104bf565b820191906000526020600020905b8154815290600101906020018083116104a257829003601f168201915b50505050509050919050565b60045481565b60008054906101000a900473ffffffffffffffffffffffffffffffffffffffff1673ffffffffffffffffffffffffffffffffffffffff163373ffffffffffffffffffffffffffffffffffffffff161461055f576040517f08c379a000000000000000000000000000000000000000000000000000000000815260040161055690611b5e565b60405180910390fd5b600360008273ffffffffffffffffffffffffffffffffffffffff1673ffffffffffffffffffffffffffffffffffffffff16815260200190815260200160002060009054906101000a900460ff16156105ec576040517f08c379a00000000000000000000000000000000000000000000000000000000081526004016105e390611b9e565b60405180910390fd5b60006002811115610626577f4e487b7100000000000000000000000000000000000000000000000000000000600052602160045260246000fd5b600060149054906101000a900460ff16600281111561066e577f4e487b7100000000000000000000000000000000000000000000000000000000600052602160045260246000fd5b146106ae576040517f08c379a00000000000000000000000000000000000000000000000000000000081526004016106a590611b3e565b60405180910390fd5b6001600360008373ffffffffffffffffffffffffffffffffffffffff1673ffffffffffffffffffffffffffffffffffffffff16815260200190815260200160002060006101000a81548160ff0219169083151502179055506005600081548092919061071990611e4e565b919050555050565b600360003373ffffffffffffffffffffffffffffffffffffffff1673ffffffffffffffffffffffffffffffffffffffff16815260200190815260200160002060009054906101000a900460ff166107ad576040517f08c379a00000000000000000000000000000000000000000000000000000000081526004016107a490611b7e565b60405180910390fd5b600160028111156107e7577f4e487b7100000000000000000000000000000000000000000000000000000000600052602160045260246000fd5b600060149054906101000a900460ff16600281111561082f577f4e487b7100000000000000000000000000000000000000000000000000000000600052602160045260246000fd5b1461086f576040517f08c379a000000000000000000000000000000000000000000000000000000000815260040161086690611bfe565b60405180910390fd5b600260003373ffffffffffffffffffffffffffffffffffffffff1673ffffffffffffffffffffffffffffffffffffffff16815260200190815260200160002060009054906101000a900460ff16156108fc576040517f08c379a00000000000000000000000000000000000000000000000000000000081526004016108f390611c3e565b60405180910390fd5b6000811015801561090e575060045481105b61094d576040517f08c379a000000000000000000000000000000000000000000000000000000000815260040161094490611c1e565b60405180910390fd5b60016000828152602001908152602001600020600201600081548092919061097490611e4e565b91905055506001600260003373ffffffffffffffffffffffffffffffffffffffff1673ffffffffffffffffffffffffffffffffffffffff16815260200190815260200160002060006101000a81548160ff021916908315150217905550807f7f511e347bf51eed3be100b3194247d5207f05f3b33de7d31e3e8ee73199a04960405160405180910390a250565b60008054906101000a900473ffffffffffffffffffffffffffffffffffffffff1673ffffffffffffffffffffffffffffffffffffffff163373ffffffffffffffffffffffffffffffffffffffff1614610a8f576040517f08c379a0000000000000000000000000000000000000000000000000000000008152600401610a8690611b5e565b60405180910390fd5b60006002811115610ac9577f4e487b7100000000000000000000000000000000000000000000000000000000600052602160045260246000fd5b600060149054906101000a900460ff166002811115610b11577f4e487b7100000000000000000000000000000000000000000000000000000000600052602160045260246000fd5b14610b51576040517f08c379a0000000000000000000000000000000000000000000000000000000008152600401610b4890611bde565b60405180910390fd5b604051806060016040528060045481526020018281526020016000815250600160006004548152602001908152602001600020600082015181600001556020820151816001019080519060200190610baa929190611473565b506040820151816002015590505060046000815480929190610bcb90611e4e565b919050555050565b60608173ffffffffffffffffffffffffffffffffffffffff1660008054906101000a900473ffffffffffffffffffffffffffffffffffffffff1673ffffffffffffffffffffffffffffffffffffffff161415610c66576040518060400160405280600581526020017f4f776e65720000000000000000000000000000000000000000000000000000008152509050610d2e565b600360008373ffffffffffffffffffffffffffffffffffffffff1673ffffffffffffffffffffffffffffffffffffffff16815260200190815260200160002060009054906101000a900460ff1615610cf5576040518060400160405280601081526020017f5265676973746572656420566f746572000000000000000000000000000000008152509050610d2e565b6040518060400160405280601481526020017f4e6f6e2d5265676973746572656420566f74657200000000000000000000000081525090505b919050565b60055481565b60008054906101000a900473ffffffffffffffffffffffffffffffffffffffff1673ffffffffffffffffffffffffffffffffffffffff163373ffffffffffffffffffffffffffffffffffffffff1614610dc7576040517f08c379a0000000000000000000000000000000000000000000000000000000008152600401610dbe90611b5e565b60405180910390fd5b60016002811115610e01577f4e487b7100000000000000000000000000000000000000000000000000000000600052602160045260246000fd5b600060149054906101000a900460ff166002811115610e49577f4e487b7100000000000000000000000000000000000000000000000000000000600052602160045260246000fd5b14610e5357600080fd5b6002600060146101000a81548160ff02191690836002811115610e9f577f4e487b7100000000000000000000000000000000000000000000000000000000600052602160045260246000fd5b0217905550565b60008054906101000a900473ffffffffffffffffffffffffffffffffffffffff1681565b6060806060600060045467ffffffffffffffff811115610f13577f4e487b7100000000000000000000000000000000000000000000000000000000600052604160045260246000fd5b604051908082528060200260200182016040528015610f415781602001602082028036833780820191505090505b509050600060045467ffffffffffffffff811115610f88577f4e487b7100000000000000000000000000000000000000000000000000000000600052604160045260246000fd5b604051908082528060200260200182016040528015610fbb57816020015b6060815260200190600190039081610fa65790505b509050600060045467ffffffffffffffff811115611002577f4e487b7100000000000000000000000000000000000000000000000000000000600052604160045260246000fd5b6040519080825280602002602001820160405280156110305781602001602082028036833780820191505090505b50905060028081111561106c577f4e487b7100000000000000000000000000000000000000000000000000000000600052602160045260246000fd5b600060149054906101000a900460ff1660028111156110b4577f4e487b7100000000000000000000000000000000000000000000000000000000600052602160045260246000fd5b146110f4576040517f08c379a00000000000000000000000000000000000000000000000000000000081526004016110eb90611bbe565b60405180910390fd5b60005b600454811015611299578084828151811061113b577f4e487b7100000000000000000000000000000000000000000000000000000000600052603260045260246000fd5b60200260200101818152505060016000828152602001908152602001600020600101805461116890611e1c565b80601f016020809104026020016040519081016040528092919081815260200182805461119490611e1c565b80156111e15780601f106111b6576101008083540402835291602001916111e1565b820191906000526020600020905b8154815290600101906020018083116111c457829003601f168201915b505050505083828151811061121f577f4e487b7100000000000000000000000000000000000000000000000000000000600052603260045260246000fd5b6020026020010181905250600160008281526020019081526020016000206002015482828151811061127a577f4e487b7100000000000000000000000000000000000000000000000000000000600052603260045260246000fd5b602002602001018181525050808061129190611e4e565b9150506110f7565b50828282955095509550505050909192565b6060600060028111156112e7577f4e487b7100000000000000000000000000000000000000000000000000000000600052602160045260246000fd5b600060149054906101000a900460ff16600281111561132f577f4e487b7100000000000000000000000000000000000000000000000000000000600052602160045260246000fd5b1415611372576040518060400160405280600b81526020017f4e6f7420537461727465640000000000000000000000000000000000000000008152509050611470565b600160028111156113ac577f4e487b7100000000000000000000000000000000000000000000000000000000600052602160045260246000fd5b600060149054906101000a900460ff1660028111156113f4577f4e487b7100000000000000000000000000000000000000000000000000000000600052602160045260246000fd5b1415611437576040518060400160405280600b81526020017f496e2050726f67726573730000000000000000000000000000000000000000008152509050611470565b6040518060400160405280600581526020017f456e64656400000000000000000000000000000000000000000000000000000081525090505b90565b82805461147f90611e1c565b90600052602060002090601f0160209004810192826114a157600085556114e8565b82601f106114ba57805160ff19168380011785556114e8565b828001600101855582156114e8579182015b828111156114e75782518255916020019190600101906114cc565b5b5090506114f591906114f9565b5090565b5b808211156115125760008160009055506001016114fa565b5090565b600061152961152484611caa565b611c79565b90508281526020810184848401111561154157600080fd5b61154c848285611dda565b509392505050565b60008135905061156381611f78565b92915050565b600082601f83011261157a57600080fd5b813561158a848260208601611516565b91505092915050565b6000813590506115a281611f8f565b92915050565b6000602082840312156115ba57600080fd5b60006115c884828501611554565b91505092915050565b6000602082840312156115e357600080fd5b600082013567ffffffffffffffff8111156115fd57600080fd5b61160984828501611569565b91505092915050565b60006020828403121561162457600080fd5b600061163284828501611593565b91505092915050565b60006116478383611758565b905092915050565b600061165b8383611a7c565b60208301905092915050565b61167081611d79565b82525050565b600061168182611cfa565b61168b8185611d35565b93508360208202850161169d85611cda565b8060005b858110156116d957848403895281516116ba858261163b565b94506116c583611d1b565b925060208a019950506001810190506116a1565b50829750879550505050505092915050565b60006116f682611d05565b6117008185611d46565b935061170b83611cea565b8060005b8381101561173c578151611723888261164f565b975061172e83611d28565b92505060018101905061170f565b5085935050505092915050565b61175281611dc8565b82525050565b600061176382611d10565b61176d8185611d57565b935061177d818560208601611de9565b61178681611f53565b840191505092915050565b600061179c82611d10565b6117a68185611d68565b93506117b6818560208601611de9565b6117bf81611f53565b840191505092915050565b60006117d7602b83611d68565b91507f566f7465722063616e277420626520616464656420616674657220656c65637460008301527f696f6e20737461727465640000000000000000000000000000000000000000006020830152604082019050919050565b600061183d602183611d68565b91507f4f6e6c79206f776e65722063616e2063616c6c20746869732066756e6374696f60008301527f6e000000000000000000000000000000000000000000000000000000000000006020830152604082019050919050565b60006118a3602d83611d68565b91507f4f6e6c79207265676973746572656420766f746572732063616e2063616c6c2060008301527f746869732066756e6374696f6e000000000000000000000000000000000000006020830152604082019050919050565b6000611909601383611d68565b91507f566f74657220616c7265616479206164646564000000000000000000000000006000830152602082019050919050565b6000611949601a83611d68565b91507f456c656374696f6e20686173206e6f7420656e646564207965740000000000006000830152602082019050919050565b6000611989601c83611d68565b91507f456c656374696f6e2068617320616c72656164792073746172746564000000006000830152602082019050919050565b60006119c9601b83611d68565b91507f456c656374696f6e206973206e6f7420696e2070726f677265737300000000006000830152602082019050919050565b6000611a09601483611d68565b91507f496e76616c69642063616e6469646174652049440000000000000000000000006000830152602082019050919050565b6000611a49601683611d68565b91507f596f75206861766520616c726561647920766f746564000000000000000000006000830152602082019050919050565b611a8581611dbe565b82525050565b611a9481611dbe565b82525050565b6000602082019050611aaf6000830184611667565b92915050565b60006060820190508181036000830152611acf81866116eb565b90508181036020830152611ae38185611676565b90508181036040830152611af781846116eb565b9050949350505050565b6000602082019050611b166000830184611749565b92915050565b60006020820190508181036000830152611b368184611791565b905092915050565b60006020820190508181036000830152611b57816117ca565b9050919050565b60006020820190508181036000830152611b7781611830565b9050919050565b60006020820190508181036000830152611b9781611896565b9050919050565b60006020820190508181036000830152611bb7816118fc565b9050919050565b60006020820190508181036000830152611bd78161193c565b9050919050565b60006020820190508181036000830152611bf78161197c565b9050919050565b60006020820190508181036000830152611c17816119bc565b9050919050565b60006020820190508181036000830152611c37816119fc565b9050919050565b60006020820190508181036000830152611c5781611a3c565b9050919050565b6000602082019050611c736000830184611a8b565b92915050565b6000604051905081810181811067ffffffffffffffff82111715611ca057611c9f611f24565b5b8060405250919050565b600067ffffffffffffffff821115611cc557611cc4611f24565b5b601f19601f8301169050602081019050919050565b6000819050602082019050919050565b6000819050602082019050919050565b600081519050919050565b600081519050919050565b600081519050919050565b6000602082019050919050565b6000602082019050919050565b600082825260208201905092915050565b600082825260208201905092915050565b600082825260208201905092915050565b600082825260208201905092915050565b6000611d8482611d9e565b9050919050565b6000819050611d9982611f64565b919050565b600073ffffffffffffffffffffffffffffffffffffffff82169050919050565b6000819050919050565b6000611dd382611d8b565b9050919050565b82818337600083830152505050565b60005b83811015611e07578082015181840152602081019050611dec565b83811115611e16576000848401525b50505050565b60006002820490506001821680611e3457607f821691505b60208210811415611e4857611e47611ef5565b5b50919050565b6000611e5982611dbe565b91507fffffffffffffffffffffffffffffffffffffffffffffffffffffffffffffffff821415611e8c57611e8b611e97565b5b600182019050919050565b7f4e487b7100000000000000000000000000000000000000000000000000000000600052601160045260246000fd5b7f4e487b7100000000000000000000000000000000000000000000000000000000600052602160045260246000fd5b7f4e487b7100000000000000000000000000000000000000000000000000000000600052602260045260246000fd5b7f4e487b7100000000000000000000000000000000000000000000000000000000600052604160045260246000fd5b6000601f19601f8301169050919050565b60038110611f7557611f74611ec6565b5b50565b611f8181611d79565b8114611f8c57600080fd5b50565b611f9881611dbe565b8114611fa357600080fd5b5056fea2646970667358221220df19031700d45018498880ef34836a06d015cc6ccb119e3b1ae9e2c07344cd3164736f6c63430008000033",
  "immutableReferences": {},
  "source": "// SPDX-License-Identifier: MIT\r\npragma solidity >=0.4.0 <0.9.0;\r\n\r\ncontract Voting {\r\n    enum ElectionState {\r\n        NotStarted,\r\n        InProgress,\r\n        Ended\r\n    }\r\n\r\n    struct CandidateInfo {\r\n        uint256 id;\r\n        string candidateName;\r\n        uint256 voteCount;\r\n    }\r\n\r\n    address public contractOwner;\r\n    ElectionState public electionState;\r\n\r\n    struct VoterInfo {\r\n        uint256 id;\r\n        string voterName;\r\n    }\r\n\r\n    mapping(uint256 => CandidateInfo) candidatesInfo;\r\n    mapping(address => bool) hasVoted;\r\n    mapping(address => bool) isRegisteredVoter;\r\n\r\n    uint256 public totalCandidates = 0;\r\n    uint256 public totalVoters = 0;\r\n\r\n    modifier onlyOwner() {\r\n        require(msg.sender == contractOwner, \"Only owner can call this function\");\r\n        _;\r\n    }\r\n\r\n    modifier onlyVoter() {\r\n        require(isRegisteredVoter[msg.sender], \"Only registered voters can call this function\");\r\n        _;\r\n    }\r\n\r\n    constructor() {\r\n        contractOwner = msg.sender;\r\n        electionState = ElectionState.NotStarted;\r\n        addCandidate(\"Alice\");\r\n        addCandidate(\"John\");\r\n        registerVoter(0x5B38Da6a701c568545dCfcB03FcB875f56beddC4);\r\n        registerVoter(0x4B20993Bc481177ec7E8f571ceCaE8A9e22C02db);\r\n        registerVoter(0x78731D3Ca6b7E34aC0F824c42a7cC18A495cabaB);\r\n    }\r\n\r\n    event Voted(uint256 indexed candidateId);\r\n\r\n    function initiateElection() public onlyOwner{\r\n        require(electionState == ElectionState.NotStarted);\r\n        electionState = ElectionState.InProgress;\r\n    }\r\n\r\n    function concludeElection() public onlyOwner{\r\n        require(electionState == ElectionState.InProgress);\r\n        electionState = ElectionState.Ended;\r\n    }\r\n\r\n    function addCandidate(string memory _name) public onlyOwner{\r\n        require(\r\n            electionState == ElectionState.NotStarted,\r\n            \"Election has already started\"\r\n        );\r\n\r\n        candidatesInfo[totalCandidates] = CandidateInfo(totalCandidates, _name, 0);\r\n        totalCandidates++;\r\n    }\r\n\r\n    function registerVoter(address _voter) public onlyOwner{\r\n        require(!isRegisteredVoter[_voter], \"Voter already added\");\r\n        require(\r\n            electionState == ElectionState.NotStarted,\r\n            \"Voter can't be added after election started\"\r\n        );\r\n\r\n        isRegisteredVoter[_voter] = true;\r\n        totalVoters++;\r\n    }\r\n\r\n    function castVote(uint256 _candidateId) public onlyVoter{\r\n        require(\r\n            electionState == ElectionState.InProgress,\r\n            \"Election is not in progress\"\r\n        );\r\n        require(!hasVoted[msg.sender], \"You have already voted\");\r\n        require(\r\n            _candidateId >= 0 && _candidateId < totalCandidates,\r\n            \"Invalid candidate ID\"\r\n        );\r\n\r\n        candidatesInfo[_candidateId].voteCount++;\r\n        hasVoted[msg.sender] = true;\r\n\r\n        emit Voted(_candidateId);\r\n    }\r\n\r\n    function getCandidateDetails(uint256 _candidateId)\r\n        public\r\n        view\r\n        returns (string memory)\r\n    {\r\n        require(\r\n            _candidateId >= 0 && _candidateId < totalCandidates,\r\n            \"Invalid candidate ID\"\r\n        );\r\n        return (\r\n            candidatesInfo[_candidateId].candidateName\r\n        );\r\n    }\r\n\r\n    function getResult() public view returns (uint256[] memory, string[] memory, uint256[] memory) {\r\n        uint256[] memory candidateIds = new uint256[](totalCandidates);\r\n        string[] memory candidateNames = new string[](totalCandidates);\r\n        uint256[] memory voteCounts = new uint256[](totalCandidates);\r\n\r\n        require(\r\n            electionState == ElectionState.Ended,\r\n            \"Election has not ended yet\"\r\n        );\r\n\r\n        for (uint256 i = 0; i < totalCandidates; i++) {\r\n            candidateIds[i] = i;\r\n            candidateNames[i] = candidatesInfo[i].candidateName;\r\n            voteCounts[i] = candidatesInfo[i].voteCount;\r\n        }\r\n\r\n        return (candidateIds, candidateNames, voteCounts);\r\n    }\r\n\r\n    function checkUserRole(address _current) public view returns (string memory) {\r\n        if (contractOwner == _current) {\r\n            return \"Owner\";\r\n        } else if (isRegisteredVoter[_current]) {\r\n            return \"Registered Voter\";\r\n        } else {\r\n            return \"Non-Registered Voter\";\r\n        }\r\n    }\r\n\r\n    // Convert ElectionState to string\r\n    function getElectionState() public view returns (string memory) {\r\n        if (electionState == ElectionState.NotStarted) {\r\n            return \"Not Started\";\r\n        } else if (electionState == ElectionState.InProgress) {\r\n            return \"In Progress\";\r\n        } else {\r\n            return \"Ended\";\r\n        }\r\n    }\r\n}",
  "sourcePath": "C:\\Users\\AfifZahrawi\\Documents\\IIUM\\Sem 7\\CSCI 4312 - Blockchain\\Group Project\\Voting dApp\\contracts\\Voting.sol",
  "compiler": {
    "name": "solc",
    "version": "0.8.0+commit.c7dfd78e.Emscripten.clang"
  },
  "schemaVersion": "3.4.16",
  "updatedAt": "2024-01-02T15:03:44.344Z",
  "networkType": "ethereum",
  "devdoc": {
    "kind": "dev",
    "methods": {},
    "version": 1
  },
  "userdoc": {
    "kind": "user",
    "methods": {},
    "version": 1
  }
}