{
  "contractName": "Voting",
  "abi": [
    {
      "inputs": [],
      "stateMutability": "nonpayable",
      "type": "constructor"
    },
    {
      "anonymous": false,
      "inputs": [
        {
          "indexed": true,
          "internalType": "uint256",
          "name": "candidateId",
          "type": "uint256"
        }
      ],
      "name": "Voted",
      "type": "event"
    },
    {
      "inputs": [],
      "name": "contractOwner",
      "outputs": [
        {
          "internalType": "address",
          "name": "",
          "type": "address"
        }
      ],
      "stateMutability": "view",
      "type": "function"
    },
    {
      "inputs": [],
      "name": "electionState",
      "outputs": [
        {
          "internalType": "enum Voting.ElectionState",
          "name": "",
          "type": "uint8"
        }
      ],
      "stateMutability": "view",
      "type": "function"
    },
    {
      "inputs": [],
      "name": "totalCandidates",
      "outputs": [
        {
          "internalType": "uint256",
          "name": "",
          "type": "uint256"
        }
      ],
      "stateMutability": "view",
      "type": "function"
    },
    {
      "inputs": [],
      "name": "totalVoters",
      "outputs": [
        {
          "internalType": "uint256",
          "name": "",
          "type": "uint256"
        }
      ],
      "stateMutability": "view",
      "type": "function"
    },
    {
      "inputs": [],
      "name": "initiateElection",
      "outputs": [],
      "stateMutability": "nonpayable",
      "type": "function"
    },
    {
      "inputs": [],
      "name": "concludeElection",
      "outputs": [],
      "stateMutability": "nonpayable",
      "type": "function"
    },
    {
      "inputs": [
        {
          "internalType": "string",
          "name": "_name",
          "type": "string"
        }
      ],
      "name": "addCandidate",
      "outputs": [],
      "stateMutability": "nonpayable",
      "type": "function"
    },
    {
      "inputs": [
        {
          "internalType": "address",
          "name": "_voter",
          "type": "address"
        }
      ],
      "name": "registerVoter",
      "outputs": [],
      "stateMutability": "nonpayable",
      "type": "function"
    },
    {
      "inputs": [
        {
          "internalType": "uint256",
          "name": "_candidateId",
          "type": "uint256"
        }
      ],
      "name": "castVote",
      "outputs": [],
      "stateMutability": "nonpayable",
      "type": "function"
    },
    {
      "inputs": [
        {
          "internalType": "uint256",
          "name": "_candidateId",
          "type": "uint256"
        }
      ],
      "name": "getCandidateDetails",
      "outputs": [
        {
          "internalType": "string",
          "name": "",
          "type": "string"
        }
      ],
      "stateMutability": "view",
      "type": "function"
    },
    {
      "inputs": [],
      "name": "getResult",
      "outputs": [
        {
          "internalType": "uint256[]",
          "name": "",
          "type": "uint256[]"
        },
        {
          "internalType": "string[]",
          "name": "",
          "type": "string[]"
        },
        {
          "internalType": "uint256[]",
          "name": "",
          "type": "uint256[]"
        }
      ],
      "stateMutability": "view",
      "type": "function"
    },
    {
      "inputs": [
        {
          "internalType": "address",
          "name": "_current",
          "type": "address"
        }
      ],
      "name": "checkUserRole",
      "outputs": [
        {
          "internalType": "string",
          "name": "",
          "type": "string"
        }
      ],
      "stateMutability": "view",
      "type": "function"
    },
    {
      "inputs": [],
      "name": "getElectionState",
      "outputs": [
        {
          "internalType": "string",
          "name": "",
          "type": "string"
        }
      ],
      "stateMutability": "view",
      "type": "function"
    }
  ],
  "bytecode": "0x60806040525f6004555f60055534801562000018575f80fd5b50335f806101000a81548173ffffffffffffffffffffffffffffffffffffffff021916908373ffffffffffffffffffffffffffffffffffffffff1602179055505f8060146101000a81548160ff021916908360028111156200007f576200007e62000516565b5b0217905550620000ca6040518060400160405280600581526020017f416c6963650000000000000000000000000000000000000000000000000000008152506200018560201b60201c565b620001106040518060400160405280600481526020017f4a6f686e000000000000000000000000000000000000000000000000000000008152506200018560201b60201c565b62000135735b38da6a701c568545dcfcb03fcb875f56beddc46200030b60201b60201c565b6200015a734b20993bc481177ec7e8f571cecae8a9e22c02db6200030b60201b60201c565b6200017f7378731d3ca6b7e34ac0f824c42a7cc18a495cabab6200030b60201b60201c565b62000b18565b5f8054906101000a900473ffffffffffffffffffffffffffffffffffffffff1673ffffffffffffffffffffffffffffffffffffffff163373ffffffffffffffffffffffffffffffffffffffff161462000215576040517f08c379a00000000000000000000000000000000000000000000000000000000081526004016200020c90620005c7565b60405180910390fd5b5f60028111156200022b576200022a62000516565b5b5f60149054906101000a900460ff1660028111156200024f576200024e62000516565b5b1462000292576040517f08c379a0000000000000000000000000000000000000000000000000000000008152600401620002899062000635565b60405180910390fd5b604051806060016040528060045481526020018281526020015f81525060015f60045481526020019081526020015f205f820151815f01556020820151816001019081620002e19190620008b9565b506040820151816002015590505060045f8154809291906200030390620009ca565b919050555050565b5f8054906101000a900473ffffffffffffffffffffffffffffffffffffffff1673ffffffffffffffffffffffffffffffffffffffff163373ffffffffffffffffffffffffffffffffffffffff16146200039b576040517f08c379a00000000000000000000000000000000000000000000000000000000081526004016200039290620005c7565b60405180910390fd5b60035f8273ffffffffffffffffffffffffffffffffffffffff1673ffffffffffffffffffffffffffffffffffffffff1681526020019081526020015f205f9054906101000a900460ff161562000428576040517f08c379a00000000000000000000000000000000000000000000000000000000081526004016200041f9062000a64565b60405180910390fd5b5f60028111156200043e576200043d62000516565b5b5f60149054906101000a900460ff16600281111562000462576200046162000516565b5b14620004a5576040517f08c379a00000000000000000000000000000000000000000000000000000000081526004016200049c9062000af8565b60405180910390fd5b600160035f8373ffffffffffffffffffffffffffffffffffffffff1673ffffffffffffffffffffffffffffffffffffffff1681526020019081526020015f205f6101000a81548160ff02191690831515021790555060055f8154809291906200050e90620009ca565b919050555050565b7f4e487b71000000000000000000000000000000000000000000000000000000005f52602160045260245ffd5b5f82825260208201905092915050565b7f4f6e6c79206f776e65722063616e2063616c6c20746869732066756e6374696f5f8201527f6e00000000000000000000000000000000000000000000000000000000000000602082015250565b5f620005af60218362000543565b9150620005bc8262000553565b604082019050919050565b5f6020820190508181035f830152620005e081620005a1565b9050919050565b7f456c656374696f6e2068617320616c72656164792073746172746564000000005f82015250565b5f6200061d601c8362000543565b91506200062a82620005e7565b602082019050919050565b5f6020820190508181035f8301526200064e816200060f565b9050919050565b5f81519050919050565b7f4e487b71000000000000000000000000000000000000000000000000000000005f52604160045260245ffd5b7f4e487b71000000000000000000000000000000000000000000000000000000005f52602260045260245ffd5b5f6002820490506001821680620006d157607f821691505b602082108103620006e757620006e66200068c565b5b50919050565b5f819050815f5260205f209050919050565b5f6020601f8301049050919050565b5f82821b905092915050565b5f600883026200074b7fffffffffffffffffffffffffffffffffffffffffffffffffffffffffffffffff826200070e565b6200075786836200070e565b95508019841693508086168417925050509392505050565b5f819050919050565b5f819050919050565b5f620007a16200079b62000795846200076f565b62000778565b6200076f565b9050919050565b5f819050919050565b620007bc8362000781565b620007d4620007cb82620007a8565b8484546200071a565b825550505050565b5f90565b620007ea620007dc565b620007f7818484620007b1565b505050565b5b818110156200081e57620008125f82620007e0565b600181019050620007fd565b5050565b601f8211156200086d576200083781620006ed565b6200084284620006ff565b8101602085101562000852578190505b6200086a6200086185620006ff565b830182620007fc565b50505b505050565b5f82821c905092915050565b5f6200088f5f198460080262000872565b1980831691505092915050565b5f620008a983836200087e565b9150826002028217905092915050565b620008c48262000655565b67ffffffffffffffff811115620008e057620008df6200065f565b5b620008ec8254620006b9565b620008f982828562000822565b5f60209050601f8311600181146200092f575f84156200091a578287015190505b6200092685826200089c565b86555062000995565b601f1984166200093f86620006ed565b5f5b82811015620009685784890151825560018201915060208501945060208101905062000941565b8683101562000988578489015162000984601f8916826200087e565b8355505b6001600288020188555050505b505050505050565b7f4e487b71000000000000000000000000000000000000000000000000000000005f52601160045260245ffd5b5f620009d6826200076f565b91507fffffffffffffffffffffffffffffffffffffffffffffffffffffffffffffffff820362000a0b5762000a0a6200099d565b5b600182019050919050565b7f566f74657220616c7265616479206164646564000000000000000000000000005f82015250565b5f62000a4c60138362000543565b915062000a598262000a16565b602082019050919050565b5f6020820190508181035f83015262000a7d8162000a3e565b9050919050565b7f566f7465722063616e277420626520616464656420616674657220656c6563745f8201527f696f6e2073746172746564000000000000000000000000000000000000000000602082015250565b5f62000ae0602b8362000543565b915062000aed8262000a84565b604082019050919050565b5f6020820190508181035f83015262000b118162000ad2565b9050919050565b611e3e8062000b265f395ff3fe608060405234801561000f575f80fd5b50600436106100cd575f3560e01c8063462e91ec1161008a578063cde419a411610064578063cde419a4146101e9578063ce606ee0146101f3578063de29278914610211578063f869809c14610231576100cd565b8063462e91ec1461017f5780634ac269211461019b5780635f5300ff146101cb576100cd565b80630ff9e259146100d15780632280043d146100db57806327f9fd50146100f95780633866965c1461012957806338db6dd3146101475780633eb76b9c14610163575b5f80fd5b6100d961024f565b005b6100e3610345565b6040516100f09190611106565b60405180910390f35b610113600480360381019061010e9190611163565b610357565b6040516101209190611218565b60405180910390f35b61013161044b565b60405161013e9190611247565b60405180910390f35b610161600480360381019061015c91906112ba565b610451565b005b61017d60048036038101906101789190611163565b61064b565b005b61019960048036038101906101949190611411565b6108d1565b005b6101b560048036038101906101b091906112ba565b610a47565b6040516101c29190611218565b60405180910390f35b6101d3610ba2565b6040516101e09190611247565b60405180910390f35b6101f1610ba8565b005b6101fb610c9f565b6040516102089190611467565b60405180910390f35b610219610cc2565b6040516102289392919061163a565b60405180910390f35b610239610f68565b6040516102469190611218565b60405180910390f35b5f8054906101000a900473ffffffffffffffffffffffffffffffffffffffff1673ffffffffffffffffffffffffffffffffffffffff163373ffffffffffffffffffffffffffffffffffffffff16146102dc576040517f08c379a00000000000000000000000000000000000000000000000000000000081526004016102d3906116f4565b60405180910390fd5b5f60028111156102ef576102ee611093565b5b5f60149054906101000a900460ff1660028111156103105761030f611093565b5b14610319575f80fd5b60015f60146101000a81548160ff0219169083600281111561033e5761033d611093565b5b0217905550565b5f60149054906101000a900460ff1681565b60605f821015801561036a575060045482105b6103a9576040517f08c379a00000000000000000000000000000000000000000000000000000000081526004016103a09061175c565b60405180910390fd5b60015f8381526020019081526020015f2060010180546103c8906117a7565b80601f01602080910402602001604051908101604052809291908181526020018280546103f4906117a7565b801561043f5780601f106104165761010080835404028352916020019161043f565b820191905f5260205f20905b81548152906001019060200180831161042257829003601f168201915b50505050509050919050565b60045481565b5f8054906101000a900473ffffffffffffffffffffffffffffffffffffffff1673ffffffffffffffffffffffffffffffffffffffff163373ffffffffffffffffffffffffffffffffffffffff16146104de576040517f08c379a00000000000000000000000000000000000000000000000000000000081526004016104d5906116f4565b60405180910390fd5b60035f8273ffffffffffffffffffffffffffffffffffffffff1673ffffffffffffffffffffffffffffffffffffffff1681526020019081526020015f205f9054906101000a900460ff1615610568576040517f08c379a000000000000000000000000000000000000000000000000000000000815260040161055f90611821565b60405180910390fd5b5f600281111561057b5761057a611093565b5b5f60149054906101000a900460ff16600281111561059c5761059b611093565b5b146105dc576040517f08c379a00000000000000000000000000000000000000000000000000000000081526004016105d3906118af565b60405180910390fd5b600160035f8373ffffffffffffffffffffffffffffffffffffffff1673ffffffffffffffffffffffffffffffffffffffff1681526020019081526020015f205f6101000a81548160ff02191690831515021790555060055f815480929190610643906118fa565b919050555050565b60035f3373ffffffffffffffffffffffffffffffffffffffff1673ffffffffffffffffffffffffffffffffffffffff1681526020019081526020015f205f9054906101000a900460ff166106d4576040517f08c379a00000000000000000000000000000000000000000000000000000000081526004016106cb906119b1565b60405180910390fd5b600160028111156106e8576106e7611093565b5b5f60149054906101000a900460ff16600281111561070957610708611093565b5b14610749576040517f08c379a000000000000000000000000000000000000000000000000000000000815260040161074090611a19565b60405180910390fd5b60025f3373ffffffffffffffffffffffffffffffffffffffff1673ffffffffffffffffffffffffffffffffffffffff1681526020019081526020015f205f9054906101000a900460ff16156107d3576040517f08c379a00000000000000000000000000000000000000000000000000000000081526004016107ca90611a81565b60405180910390fd5b5f81101580156107e4575060045481105b610823576040517f08c379a000000000000000000000000000000000000000000000000000000000815260040161081a9061175c565b60405180910390fd5b60015f8281526020019081526020015f206002015f815480929190610847906118fa565b9190505550600160025f3373ffffffffffffffffffffffffffffffffffffffff1673ffffffffffffffffffffffffffffffffffffffff1681526020019081526020015f205f6101000a81548160ff021916908315150217905550807f7f511e347bf51eed3be100b3194247d5207f05f3b33de7d31e3e8ee73199a04960405160405180910390a250565b5f8054906101000a900473ffffffffffffffffffffffffffffffffffffffff1673ffffffffffffffffffffffffffffffffffffffff163373ffffffffffffffffffffffffffffffffffffffff161461095e576040517f08c379a0000000000000000000000000000000000000000000000000000000008152600401610955906116f4565b60405180910390fd5b5f600281111561097157610970611093565b5b5f60149054906101000a900460ff16600281111561099257610991611093565b5b146109d2576040517f08c379a00000000000000000000000000000000000000000000000000000000081526004016109c990611ae9565b60405180910390fd5b604051806060016040528060045481526020018281526020015f81525060015f60045481526020019081526020015f205f820151815f01556020820151816001019081610a1f9190611ca4565b506040820151816002015590505060045f815480929190610a3f906118fa565b919050555050565b60608173ffffffffffffffffffffffffffffffffffffffff165f8054906101000a900473ffffffffffffffffffffffffffffffffffffffff1673ffffffffffffffffffffffffffffffffffffffff1603610ad8576040518060400160405280600581526020017f4f776e65720000000000000000000000000000000000000000000000000000008152509050610b9d565b60035f8373ffffffffffffffffffffffffffffffffffffffff1673ffffffffffffffffffffffffffffffffffffffff1681526020019081526020015f205f9054906101000a900460ff1615610b64576040518060400160405280601081526020017f5265676973746572656420566f746572000000000000000000000000000000008152509050610b9d565b6040518060400160405280601481526020017f4e6f6e2d5265676973746572656420566f74657200000000000000000000000081525090505b919050565b60055481565b5f8054906101000a900473ffffffffffffffffffffffffffffffffffffffff1673ffffffffffffffffffffffffffffffffffffffff163373ffffffffffffffffffffffffffffffffffffffff1614610c35576040517f08c379a0000000000000000000000000000000000000000000000000000000008152600401610c2c906116f4565b60405180910390fd5b60016002811115610c4957610c48611093565b5b5f60149054906101000a900460ff166002811115610c6a57610c69611093565b5b14610c73575f80fd5b60025f60146101000a81548160ff02191690836002811115610c9857610c97611093565b5b0217905550565b5f8054906101000a900473ffffffffffffffffffffffffffffffffffffffff1681565b60608060605f60045467ffffffffffffffff811115610ce457610ce36112ed565b5b604051908082528060200260200182016040528015610d125781602001602082028036833780820191505090505b5090505f60045467ffffffffffffffff811115610d3257610d316112ed565b5b604051908082528060200260200182016040528015610d6557816020015b6060815260200190600190039081610d505790505b5090505f60045467ffffffffffffffff811115610d8557610d846112ed565b5b604051908082528060200260200182016040528015610db35781602001602082028036833780820191505090505b509050600280811115610dc957610dc8611093565b5b5f60149054906101000a900460ff166002811115610dea57610de9611093565b5b14610e2a576040517f08c379a0000000000000000000000000000000000000000000000000000000008152600401610e2190611dbd565b60405180910390fd5b5f5b600454811015610f565780848281518110610e4a57610e49611ddb565b5b60200260200101818152505060015f8281526020019081526020015f206001018054610e75906117a7565b80601f0160208091040260200160405190810160405280929190818152602001828054610ea1906117a7565b8015610eec5780601f10610ec357610100808354040283529160200191610eec565b820191905f5260205f20905b815481529060010190602001808311610ecf57829003601f168201915b5050505050838281518110610f0457610f03611ddb565b5b602002602001018190525060015f8281526020019081526020015f2060020154828281518110610f3757610f36611ddb565b5b6020026020010181815250508080610f4e906118fa565b915050610e2c565b50828282955095509550505050909192565b60605f6002811115610f7d57610f7c611093565b5b5f60149054906101000a900460ff166002811115610f9e57610f9d611093565b5b03610fe0576040518060400160405280600b81526020017f4e6f7420537461727465640000000000000000000000000000000000000000008152509050611090565b60016002811115610ff457610ff3611093565b5b5f60149054906101000a900460ff16600281111561101557611014611093565b5b03611057576040518060400160405280600b81526020017f496e2050726f67726573730000000000000000000000000000000000000000008152509050611090565b6040518060400160405280600581526020017f456e64656400000000000000000000000000000000000000000000000000000081525090505b90565b7f4e487b71000000000000000000000000000000000000000000000000000000005f52602160045260245ffd5b600381106110d1576110d0611093565b5b50565b5f8190506110e1826110c0565b919050565b5f6110f0826110d4565b9050919050565b611100816110e6565b82525050565b5f6020820190506111195f8301846110f7565b92915050565b5f604051905090565b5f80fd5b5f80fd5b5f819050919050565b61114281611130565b811461114c575f80fd5b50565b5f8135905061115d81611139565b92915050565b5f6020828403121561117857611177611128565b5b5f6111858482850161114f565b91505092915050565b5f81519050919050565b5f82825260208201905092915050565b5f5b838110156111c55780820151818401526020810190506111aa565b5f8484015250505050565b5f601f19601f8301169050919050565b5f6111ea8261118e565b6111f48185611198565b93506112048185602086016111a8565b61120d816111d0565b840191505092915050565b5f6020820190508181035f83015261123081846111e0565b905092915050565b61124181611130565b82525050565b5f60208201905061125a5f830184611238565b92915050565b5f73ffffffffffffffffffffffffffffffffffffffff82169050919050565b5f61128982611260565b9050919050565b6112998161127f565b81146112a3575f80fd5b50565b5f813590506112b481611290565b92915050565b5f602082840312156112cf576112ce611128565b5b5f6112dc848285016112a6565b91505092915050565b5f80fd5b5f80fd5b7f4e487b71000000000000000000000000000000000000000000000000000000005f52604160045260245ffd5b611323826111d0565b810181811067ffffffffffffffff82111715611342576113416112ed565b5b80604052505050565b5f61135461111f565b9050611360828261131a565b919050565b5f67ffffffffffffffff82111561137f5761137e6112ed565b5b611388826111d0565b9050602081019050919050565b828183375f83830152505050565b5f6113b56113b084611365565b61134b565b9050828152602081018484840111156113d1576113d06112e9565b5b6113dc848285611395565b509392505050565b5f82601f8301126113f8576113f76112e5565b5b81356114088482602086016113a3565b91505092915050565b5f6020828403121561142657611425611128565b5b5f82013567ffffffffffffffff8111156114435761144261112c565b5b61144f848285016113e4565b91505092915050565b6114618161127f565b82525050565b5f60208201905061147a5f830184611458565b92915050565b5f81519050919050565b5f82825260208201905092915050565b5f819050602082019050919050565b6114b281611130565b82525050565b5f6114c383836114a9565b60208301905092915050565b5f602082019050919050565b5f6114e582611480565b6114ef818561148a565b93506114fa8361149a565b805f5b8381101561152a57815161151188826114b8565b975061151c836114cf565b9250506001810190506114fd565b5085935050505092915050565b5f81519050919050565b5f82825260208201905092915050565b5f819050602082019050919050565b5f82825260208201905092915050565b5f61157a8261118e565b6115848185611560565b93506115948185602086016111a8565b61159d816111d0565b840191505092915050565b5f6115b38383611570565b905092915050565b5f602082019050919050565b5f6115d182611537565b6115db8185611541565b9350836020820285016115ed85611551565b805f5b85811015611628578484038952815161160985826115a8565b9450611614836115bb565b925060208a019950506001810190506115f0565b50829750879550505050505092915050565b5f6060820190508181035f83015261165281866114db565b9050818103602083015261166681856115c7565b9050818103604083015261167a81846114db565b9050949350505050565b7f4f6e6c79206f776e65722063616e2063616c6c20746869732066756e6374696f5f8201527f6e00000000000000000000000000000000000000000000000000000000000000602082015250565b5f6116de602183611198565b91506116e982611684565b604082019050919050565b5f6020820190508181035f83015261170b816116d2565b9050919050565b7f496e76616c69642063616e6469646174652049440000000000000000000000005f82015250565b5f611746601483611198565b915061175182611712565b602082019050919050565b5f6020820190508181035f8301526117738161173a565b9050919050565b7f4e487b71000000000000000000000000000000000000000000000000000000005f52602260045260245ffd5b5f60028204905060018216806117be57607f821691505b6020821081036117d1576117d061177a565b5b50919050565b7f566f74657220616c7265616479206164646564000000000000000000000000005f82015250565b5f61180b601383611198565b9150611816826117d7565b602082019050919050565b5f6020820190508181035f830152611838816117ff565b9050919050565b7f566f7465722063616e277420626520616464656420616674657220656c6563745f8201527f696f6e2073746172746564000000000000000000000000000000000000000000602082015250565b5f611899602b83611198565b91506118a48261183f565b604082019050919050565b5f6020820190508181035f8301526118c68161188d565b9050919050565b7f4e487b71000000000000000000000000000000000000000000000000000000005f52601160045260245ffd5b5f61190482611130565b91507fffffffffffffffffffffffffffffffffffffffffffffffffffffffffffffffff8203611936576119356118cd565b5b600182019050919050565b7f4f6e6c79207265676973746572656420766f746572732063616e2063616c6c205f8201527f746869732066756e6374696f6e00000000000000000000000000000000000000602082015250565b5f61199b602d83611198565b91506119a682611941565b604082019050919050565b5f6020820190508181035f8301526119c88161198f565b9050919050565b7f456c656374696f6e206973206e6f7420696e2070726f677265737300000000005f82015250565b5f611a03601b83611198565b9150611a0e826119cf565b602082019050919050565b5f6020820190508181035f830152611a30816119f7565b9050919050565b7f596f75206861766520616c726561647920766f746564000000000000000000005f82015250565b5f611a6b601683611198565b9150611a7682611a37565b602082019050919050565b5f6020820190508181035f830152611a9881611a5f565b9050919050565b7f456c656374696f6e2068617320616c72656164792073746172746564000000005f82015250565b5f611ad3601c83611198565b9150611ade82611a9f565b602082019050919050565b5f6020820190508181035f830152611b0081611ac7565b9050919050565b5f819050815f5260205f209050919050565b5f6020601f8301049050919050565b5f82821b905092915050565b5f60088302611b637fffffffffffffffffffffffffffffffffffffffffffffffffffffffffffffffff82611b28565b611b6d8683611b28565b95508019841693508086168417925050509392505050565b5f819050919050565b5f611ba8611ba3611b9e84611130565b611b85565b611130565b9050919050565b5f819050919050565b611bc183611b8e565b611bd5611bcd82611baf565b848454611b34565b825550505050565b5f90565b611be9611bdd565b611bf4818484611bb8565b505050565b5b81811015611c1757611c0c5f82611be1565b600181019050611bfa565b5050565b601f821115611c5c57611c2d81611b07565b611c3684611b19565b81016020851015611c45578190505b611c59611c5185611b19565b830182611bf9565b50505b505050565b5f82821c905092915050565b5f611c7c5f1984600802611c61565b1980831691505092915050565b5f611c948383611c6d565b9150826002028217905092915050565b611cad8261118e565b67ffffffffffffffff811115611cc657611cc56112ed565b5b611cd082546117a7565b611cdb828285611c1b565b5f60209050601f831160018114611d0c575f8415611cfa578287015190505b611d048582611c89565b865550611d6b565b601f198416611d1a86611b07565b5f5b82811015611d4157848901518255600182019150602085019450602081019050611d1c565b86831015611d5e5784890151611d5a601f891682611c6d565b8355505b6001600288020188555050505b505050505050565b7f456c656374696f6e20686173206e6f7420656e646564207965740000000000005f82015250565b5f611da7601a83611198565b9150611db282611d73565b602082019050919050565b5f6020820190508181035f830152611dd481611d9b565b9050919050565b7f4e487b71000000000000000000000000000000000000000000000000000000005f52603260045260245ffdfea2646970667358221220cdb7caf807b44120b2aaa5077276d6e8b3a3df9359e9600f49f8e5fed0e7b06164736f6c63430008150033",
  "immutableReferences": {},
  "source": "// SPDX-License-Identifier: MIT\r\npragma solidity >=0.4.0 <0.9.0;\r\n\r\ncontract Voting {\r\n    enum ElectionState {\r\n        NotStarted,\r\n        InProgress,\r\n        Ended\r\n    }\r\n\r\n    struct CandidateInfo {\r\n        uint256 id;\r\n        string candidateName;\r\n        uint256 voteCount;\r\n    }\r\n\r\n    address public contractOwner;\r\n    ElectionState public electionState;\r\n\r\n    struct VoterInfo {\r\n        uint256 id;\r\n        string voterName;\r\n    }\r\n\r\n    mapping(uint256 => CandidateInfo) candidatesInfo;\r\n    mapping(address => bool) hasVoted;\r\n    mapping(address => bool) isRegisteredVoter;\r\n\r\n    uint256 public totalCandidates = 0;\r\n    uint256 public totalVoters = 0;\r\n\r\n    modifier onlyOwner() {\r\n        require(msg.sender == contractOwner, \"Only owner can call this function\");\r\n        _;\r\n    }\r\n\r\n    modifier onlyVoter() {\r\n        require(isRegisteredVoter[msg.sender], \"Only registered voters can call this function\");\r\n        _;\r\n    }\r\n\r\n    constructor() {\r\n        contractOwner = msg.sender;\r\n        electionState = ElectionState.NotStarted;\r\n        addCandidate(\"Alice\");\r\n        addCandidate(\"John\");\r\n        registerVoter(0x5B38Da6a701c568545dCfcB03FcB875f56beddC4);\r\n        registerVoter(0x4B20993Bc481177ec7E8f571ceCaE8A9e22C02db);\r\n        registerVoter(0x78731D3Ca6b7E34aC0F824c42a7cC18A495cabaB);\r\n    }\r\n\r\n    event Voted(uint256 indexed candidateId);\r\n\r\n    function initiateElection() public onlyOwner{\r\n        require(electionState == ElectionState.NotStarted);\r\n        electionState = ElectionState.InProgress;\r\n    }\r\n\r\n    function concludeElection() public onlyOwner{\r\n        require(electionState == ElectionState.InProgress);\r\n        electionState = ElectionState.Ended;\r\n    }\r\n\r\n    function addCandidate(string memory _name) public onlyOwner{\r\n        require(\r\n            electionState == ElectionState.NotStarted,\r\n            \"Election has already started\"\r\n        );\r\n\r\n        candidatesInfo[totalCandidates] = CandidateInfo(totalCandidates, _name, 0);\r\n        totalCandidates++;\r\n    }\r\n\r\n    function registerVoter(address _voter) public onlyOwner{\r\n        require(!isRegisteredVoter[_voter], \"Voter already added\");\r\n        require(\r\n            electionState == ElectionState.NotStarted,\r\n            \"Voter can't be added after election started\"\r\n        );\r\n\r\n        isRegisteredVoter[_voter] = true;\r\n        totalVoters++;\r\n    }\r\n\r\n    function castVote(uint256 _candidateId) public onlyVoter{\r\n        require(\r\n            electionState == ElectionState.InProgress,\r\n            \"Election is not in progress\"\r\n        );\r\n        require(!hasVoted[msg.sender], \"You have already voted\");\r\n        require(\r\n            _candidateId >= 0 && _candidateId < totalCandidates,\r\n            \"Invalid candidate ID\"\r\n        );\r\n\r\n        candidatesInfo[_candidateId].voteCount++;\r\n        hasVoted[msg.sender] = true;\r\n\r\n        emit Voted(_candidateId);\r\n    }\r\n\r\n    function getCandidateDetails(uint256 _candidateId)\r\n        public\r\n        view\r\n        returns (string memory)\r\n    {\r\n        require(\r\n            _candidateId >= 0 && _candidateId < totalCandidates,\r\n            \"Invalid candidate ID\"\r\n        );\r\n        return (\r\n            candidatesInfo[_candidateId].candidateName\r\n        );\r\n    }\r\n\r\n    function getResult() public view returns (uint256[] memory, string[] memory, uint256[] memory) {\r\n        uint256[] memory candidateIds = new uint256[](totalCandidates);\r\n        string[] memory candidateNames = new string[](totalCandidates);\r\n        uint256[] memory voteCounts = new uint256[](totalCandidates);\r\n\r\n        require(\r\n            electionState == ElectionState.Ended,\r\n            \"Election has not ended yet\"\r\n        );\r\n\r\n        for (uint256 i = 0; i < totalCandidates; i++) {\r\n            candidateIds[i] = i;\r\n            candidateNames[i] = candidatesInfo[i].candidateName;\r\n            voteCounts[i] = candidatesInfo[i].voteCount;\r\n        }\r\n\r\n        return (candidateIds, candidateNames, voteCounts);\r\n    }\r\n\r\n    function checkUserRole(address _current) public view returns (string memory) {\r\n        if (contractOwner == _current) {\r\n            return \"Owner\";\r\n        } else if (isRegisteredVoter[_current]) {\r\n            return \"Registered Voter\";\r\n        } else {\r\n            return \"Non-Registered Voter\";\r\n        }\r\n    }\r\n\r\n    // Convert ElectionState to string\r\n    function getElectionState() public view returns (string memory) {\r\n        if (electionState == ElectionState.NotStarted) {\r\n            return \"Not Started\";\r\n        } else if (electionState == ElectionState.InProgress) {\r\n            return \"In Progress\";\r\n        } else {\r\n            return \"Ended\";\r\n        }\r\n    }\r\n}",
  "sourcePath": "C:\\Users\\AfifZahrawi\\Documents\\IIUM\\Sem 7\\CSCI 4312 - Blockchain\\Group Project\\Voting dApp\\contracts\\Voting.sol",
  "compiler": {
    "name": "solc",
    "version": "0.8.21+commit.d9974bed.Emscripten.clang"
  },
  "schemaVersion": "3.4.16",
  "updatedAt": "2024-01-01T14:34:05.084Z",
  "devdoc": {
    "kind": "dev",
    "methods": {},
    "version": 1
  },
  "userdoc": {
    "kind": "user",
    "methods": {},
    "version": 1
  }
}